{
  "contractName": "ClientToken2",
  "abi": [
    {
      "inputs": [
        {
          "internalType": "uint256",
          "name": "_totalQty",
          "type": "uint256"
        }
      ],
      "stateMutability": "nonpayable",
      "type": "constructor"
    },
    {
      "anonymous": false,
      "inputs": [
        {
          "indexed": true,
          "internalType": "address",
          "name": "_owner",
          "type": "address"
        },
        {
          "indexed": true,
          "internalType": "address",
          "name": "_spender",
          "type": "address"
        },
        {
          "indexed": false,
          "internalType": "uint256",
          "name": "_value",
          "type": "uint256"
        }
      ],
      "name": "Approval",
      "type": "event"
    },
    {
      "anonymous": false,
      "inputs": [
        {
          "indexed": true,
          "internalType": "address",
          "name": "_from",
          "type": "address"
        },
        {
          "indexed": true,
          "internalType": "address",
          "name": "_to",
          "type": "address"
        },
        {
          "indexed": false,
          "internalType": "uint256",
          "name": "_value",
          "type": "uint256"
        }
      ],
      "name": "Transfer",
      "type": "event"
    },
    {
      "inputs": [
        {
          "internalType": "address",
          "name": "_owner",
          "type": "address"
        },
        {
          "internalType": "address",
          "name": "_spender",
          "type": "address"
        }
      ],
      "name": "allowance",
      "outputs": [
        {
          "internalType": "uint256",
          "name": "remaining",
          "type": "uint256"
        }
      ],
      "stateMutability": "view",
      "type": "function"
    },
    {
      "inputs": [
        {
          "internalType": "address",
          "name": "_spender",
          "type": "address"
        },
        {
          "internalType": "uint256",
          "name": "_value",
          "type": "uint256"
        }
      ],
      "name": "approve",
      "outputs": [
        {
          "internalType": "bool",
          "name": "success",
          "type": "bool"
        }
      ],
      "stateMutability": "nonpayable",
      "type": "function"
    },
    {
      "inputs": [
        {
          "internalType": "address",
          "name": "_owner",
          "type": "address"
        }
      ],
      "name": "balanceOf",
      "outputs": [
        {
          "internalType": "uint256",
          "name": "balance",
          "type": "uint256"
        }
      ],
      "stateMutability": "view",
      "type": "function"
    },
    {
      "inputs": [
        {
          "internalType": "uint256",
          "name": "_inc",
          "type": "uint256"
        },
        {
          "internalType": "address",
          "name": "_addr",
          "type": "address"
        }
      ],
      "name": "burn",
      "outputs": [],
      "stateMutability": "nonpayable",
      "type": "function"
    },
    {
      "inputs": [],
      "name": "decimals",
      "outputs": [
        {
          "internalType": "uint8",
          "name": "",
          "type": "uint8"
        }
      ],
      "stateMutability": "view",
      "type": "function"
    },
    {
      "inputs": [
        {
          "internalType": "address",
          "name": "_spender",
          "type": "address"
        },
        {
          "internalType": "uint256",
          "name": "_value",
          "type": "uint256"
        }
      ],
      "name": "decreaseAllowance",
      "outputs": [
        {
          "internalType": "bool",
          "name": "success",
          "type": "bool"
        }
      ],
      "stateMutability": "nonpayable",
      "type": "function"
    },
    {
      "inputs": [
        {
          "internalType": "address",
          "name": "_spender",
          "type": "address"
        },
        {
          "internalType": "uint256",
          "name": "_value",
          "type": "uint256"
        }
      ],
      "name": "increaseAllowance",
      "outputs": [
        {
          "internalType": "bool",
          "name": "success",
          "type": "bool"
        }
      ],
      "stateMutability": "nonpayable",
      "type": "function"
    },
    {
      "inputs": [
        {
          "internalType": "uint256",
          "name": "_inc",
          "type": "uint256"
        },
        {
          "internalType": "address",
          "name": "_addr",
          "type": "address"
        }
      ],
      "name": "mint",
      "outputs": [],
      "stateMutability": "nonpayable",
      "type": "function"
    },
    {
      "inputs": [],
      "name": "name",
      "outputs": [
        {
          "internalType": "string",
          "name": "",
          "type": "string"
        }
      ],
      "stateMutability": "view",
      "type": "function"
    },
    {
      "inputs": [
        {
          "internalType": "uint8",
          "name": "_num",
          "type": "uint8"
        }
      ],
      "name": "setBrokerage",
      "outputs": [],
      "stateMutability": "nonpayable",
      "type": "function"
    },
    {
      "inputs": [],
      "name": "symbol",
      "outputs": [
        {
          "internalType": "string",
          "name": "",
          "type": "string"
        }
      ],
      "stateMutability": "view",
      "type": "function"
    },
    {
      "inputs": [],
      "name": "totalSupply",
      "outputs": [
        {
          "internalType": "uint256",
          "name": "",
          "type": "uint256"
        }
      ],
      "stateMutability": "view",
      "type": "function"
    },
    {
      "inputs": [
        {
          "internalType": "address",
          "name": "_to",
          "type": "address"
        },
        {
          "internalType": "uint256",
          "name": "_value",
          "type": "uint256"
        }
      ],
      "name": "transfer",
      "outputs": [
        {
          "internalType": "bool",
          "name": "success",
          "type": "bool"
        }
      ],
      "stateMutability": "nonpayable",
      "type": "function"
    },
    {
      "inputs": [
        {
          "internalType": "address",
          "name": "_from",
          "type": "address"
        },
        {
          "internalType": "address",
          "name": "_to",
          "type": "address"
        },
        {
          "internalType": "uint256",
          "name": "_value",
          "type": "uint256"
        }
      ],
      "name": "transferFrom",
      "outputs": [
        {
          "internalType": "bool",
          "name": "success",
          "type": "bool"
        }
      ],
      "stateMutability": "nonpayable",
      "type": "function"
    },
    {
      "inputs": [
        {
          "internalType": "address[]",
          "name": "_addr",
          "type": "address[]"
        },
        {
          "internalType": "uint256[]",
          "name": "_salary",
          "type": "uint256[]"
        }
      ],
      "name": "bulkTransfer",
      "outputs": [
        {
          "internalType": "bool",
          "name": "",
          "type": "bool"
        }
      ],
      "stateMutability": "nonpayable",
      "type": "function"
    }
  ],
  "bytecode": "0x60806040523480156200001157600080fd5b50604051620021aa380380620021aa83398181016040528101906200003791906200031d565b6040518060400160405280600981526020017f4b68616e436f696e3200000000000000000000000000000000000000000000008152506040518060400160405280600481526020017f4b4843320000000000000000000000000000000000000000000000000000000081525060008260019080519060200190620000bd92919062000256565b508160029080519060200190620000d692919062000256565b5080600360006101000a81548160ff021916908360ff160217905550336000806101000a81548173ffffffffffffffffffffffffffffffffffffffff021916908373ffffffffffffffffffffffffffffffffffffffff1602179055505050506200014781336200014e60201b60201c565b50620004d3565b3373ffffffffffffffffffffffffffffffffffffffff1660008054906101000a900473ffffffffffffffffffffffffffffffffffffffff1673ffffffffffffffffffffffffffffffffffffffff1614620001df576040517f08c379a0000000000000000000000000000000000000000000000000000000008152600401620001d6906200038b565b60405180910390fd5b8160046000828254620001f39190620003be565b9250508190555081600560008373ffffffffffffffffffffffffffffffffffffffff1673ffffffffffffffffffffffffffffffffffffffff16815260200190815260200160002060008282546200024b9190620003be565b925050819055505050565b828054620002649062000425565b90600052602060002090601f016020900481019282620002885760008555620002d4565b82601f10620002a357805160ff1916838001178555620002d4565b82800160010185558215620002d4579182015b82811115620002d3578251825591602001919060010190620002b6565b5b509050620002e39190620002e7565b5090565b5b8082111562000302576000816000905550600101620002e8565b5090565b6000815190506200031781620004b9565b92915050565b6000602082840312156200033057600080fd5b6000620003408482850162000306565b91505092915050565b600062000358600a83620003ad565b91507f4f6e6c79206f776e6572000000000000000000000000000000000000000000006000830152602082019050919050565b60006020820190508181036000830152620003a68162000349565b9050919050565b600082825260208201905092915050565b6000620003cb826200041b565b9150620003d8836200041b565b9250827fffffffffffffffffffffffffffffffffffffffffffffffffffffffffffffffff0382111562000410576200040f6200045b565b5b828201905092915050565b6000819050919050565b600060028204905060018216806200043e57607f821691505b602082108114156200045557620004546200048a565b5b50919050565b7f4e487b7100000000000000000000000000000000000000000000000000000000600052601160045260246000fd5b7f4e487b7100000000000000000000000000000000000000000000000000000000600052602260045260246000fd5b620004c4816200041b565b8114620004d057600080fd5b50565b611cc780620004e36000396000f3fe608060405234801561001057600080fd5b50600436106100f55760003560e01c80633952593d11610097578063a457c2d711610066578063a457c2d71461029a578063a9059cbb146102ca578063dd62ed3e146102fa578063fcd3533c1461032a576100f5565b80633952593d1461021457806370a082311461023057806394bf804d1461026057806395d89b411461027c576100f5565b806318160ddd116100d357806318160ddd1461017857806323b872dd14610196578063313ce567146101c657806339509351146101e4576100f5565b806306fdde03146100fa578063095ea7b314610118578063153a1f3e14610148575b600080fd5b610102610346565b60405161010f919061179c565b60405180910390f35b610132600480360381019061012d9190611402565b6103d8565b60405161013f9190611781565b60405180910390f35b610162600480360381019061015d919061143e565b6104ca565b60405161016f9190611781565b60405180910390f35b6101806104d2565b60405161018d919061189e565b60405180910390f35b6101b060048036038101906101ab91906113b3565b6104dc565b6040516101bd9190611781565b60405180910390f35b6101ce610882565b6040516101db91906118b9565b60405180910390f35b6101fe60048036038101906101f99190611402565b610899565b60405161020b9190611781565b60405180910390f35b61022e600480360381019061022991906114e6565b61099d565b005b61024a6004803603810190610245919061134e565b610a90565b604051610257919061189e565b60405180910390f35b61027a600480360381019061027591906114aa565b610ad9565b005b610284610bda565b604051610291919061179c565b60405180910390f35b6102b460048036038101906102af9190611402565b610c6c565b6040516102c19190611781565b60405180910390f35b6102e460048036038101906102df9190611402565b610e34565b6040516102f19190611781565b60405180910390f35b610314600480360381019061030f9190611377565b610fd3565b604051610321919061189e565b60405180910390f35b610344600480360381019061033f91906114aa565b61105a565b005b60606001805461035590611b4d565b80601f016020809104026020016040519081016040528092919081815260200182805461038190611b4d565b80156103ce5780601f106103a3576101008083540402835291602001916103ce565b820191906000526020600020905b8154815290600101906020018083116103b157829003601f168201915b5050505050905090565b600081600760003373ffffffffffffffffffffffffffffffffffffffff1673ffffffffffffffffffffffffffffffffffffffff16815260200190815260200160002060008573ffffffffffffffffffffffffffffffffffffffff1673ffffffffffffffffffffffffffffffffffffffff168152602001908152602001600020819055508273ffffffffffffffffffffffffffffffffffffffff163373ffffffffffffffffffffffffffffffffffffffff167f8c5be1e5ebec7d5bd14f71427d1e84f3dd0314c0f7b2291e5b200ac8c7c3b925846040516104b8919061189e565b60405180910390a36001905092915050565b600092915050565b6000600454905090565b600081600560008673ffffffffffffffffffffffffffffffffffffffff1673ffffffffffffffffffffffffffffffffffffffff168152602001908152602001600020541015610560576040517f08c379a0000000000000000000000000000000000000000000000000000000008152600401610557906117be565b60405180910390fd5b81600760008673ffffffffffffffffffffffffffffffffffffffff1673ffffffffffffffffffffffffffffffffffffffff16815260200190815260200160002060003373ffffffffffffffffffffffffffffffffffffffff1673ffffffffffffffffffffffffffffffffffffffff16815260200190815260200160002054101561061f576040517f08c379a00000000000000000000000000000000000000000000000000000000081526004016106169061183e565b60405180910390fd5b6064600660009054906101000a900460ff16606461063d91906119cf565b60ff168361064b9190611a37565b6106559190611a06565b600560008673ffffffffffffffffffffffffffffffffffffffff1673ffffffffffffffffffffffffffffffffffffffff16815260200190815260200160002060008282546106a39190611a91565b9250508190555081600560008573ffffffffffffffffffffffffffffffffffffffff1673ffffffffffffffffffffffffffffffffffffffff16815260200190815260200160002060008282546106f99190611979565b925050819055506064600660009054906101000a900460ff1660ff16836107209190611a37565b61072a9190611a06565b600560003373ffffffffffffffffffffffffffffffffffffffff1673ffffffffffffffffffffffffffffffffffffffff16815260200190815260200160002060008282546107789190611979565b9250508190555081600760008673ffffffffffffffffffffffffffffffffffffffff1673ffffffffffffffffffffffffffffffffffffffff16815260200190815260200160002060003373ffffffffffffffffffffffffffffffffffffffff1673ffffffffffffffffffffffffffffffffffffffff168152602001908152602001600020600082825461080b9190611a91565b925050819055508273ffffffffffffffffffffffffffffffffffffffff168473ffffffffffffffffffffffffffffffffffffffff167fddf252ad1be2c89b69c2b068fc378daa952ba7f163c4a11628f55a4df523b3ef8460405161086f919061189e565b60405180910390a3600190509392505050565b6000600360009054906101000a900460ff16905090565b600081600760003373ffffffffffffffffffffffffffffffffffffffff1673ffffffffffffffffffffffffffffffffffffffff16815260200190815260200160002060008573ffffffffffffffffffffffffffffffffffffffff1673ffffffffffffffffffffffffffffffffffffffff16815260200190815260200160002060008282546109279190611979565b925050819055508273ffffffffffffffffffffffffffffffffffffffff163373ffffffffffffffffffffffffffffffffffffffff167f8c5be1e5ebec7d5bd14f71427d1e84f3dd0314c0f7b2291e5b200ac8c7c3b9258460405161098b919061189e565b60405180910390a36001905092915050565b60008054906101000a900473ffffffffffffffffffffffffffffffffffffffff1673ffffffffffffffffffffffffffffffffffffffff163373ffffffffffffffffffffffffffffffffffffffff1614610a2b576040517f08c379a0000000000000000000000000000000000000000000000000000000008152600401610a229061185e565b60405180910390fd5b60648160ff161115610a72576040517f08c379a0000000000000000000000000000000000000000000000000000000008152600401610a699061187e565b60405180910390fd5b80600660006101000a81548160ff021916908360ff16021790555050565b6000600560008373ffffffffffffffffffffffffffffffffffffffff1673ffffffffffffffffffffffffffffffffffffffff168152602001908152602001600020549050919050565b3373ffffffffffffffffffffffffffffffffffffffff1660008054906101000a900473ffffffffffffffffffffffffffffffffffffffff1673ffffffffffffffffffffffffffffffffffffffff1614610b67576040517f08c379a0000000000000000000000000000000000000000000000000000000008152600401610b5e906117fe565b60405180910390fd5b8160046000828254610b799190611979565b9250508190555081600560008373ffffffffffffffffffffffffffffffffffffffff1673ffffffffffffffffffffffffffffffffffffffff1681526020019081526020016000206000828254610bcf9190611979565b925050819055505050565b606060028054610be990611b4d565b80601f0160208091040260200160405190810160405280929190818152602001828054610c1590611b4d565b8015610c625780601f10610c3757610100808354040283529160200191610c62565b820191906000526020600020905b815481529060010190602001808311610c4557829003601f168201915b5050505050905090565b600080600760003373ffffffffffffffffffffffffffffffffffffffff1673ffffffffffffffffffffffffffffffffffffffff16815260200190815260200160002060008573ffffffffffffffffffffffffffffffffffffffff1673ffffffffffffffffffffffffffffffffffffffff16815260200190815260200160002054905082811015610d31576040517f08c379a0000000000000000000000000000000000000000000000000000000008152600401610d28906117de565b60405180910390fd5b82600760003373ffffffffffffffffffffffffffffffffffffffff1673ffffffffffffffffffffffffffffffffffffffff16815260200190815260200160002060008673ffffffffffffffffffffffffffffffffffffffff1673ffffffffffffffffffffffffffffffffffffffff1681526020019081526020016000206000828254610dbd9190611a91565b925050819055508373ffffffffffffffffffffffffffffffffffffffff163373ffffffffffffffffffffffffffffffffffffffff167f8c5be1e5ebec7d5bd14f71427d1e84f3dd0314c0f7b2291e5b200ac8c7c3b92585604051610e21919061189e565b60405180910390a3600191505092915050565b600081600560003373ffffffffffffffffffffffffffffffffffffffff1673ffffffffffffffffffffffffffffffffffffffff168152602001908152602001600020541015610eb8576040517f08c379a0000000000000000000000000000000000000000000000000000000008152600401610eaf906117be565b60405180910390fd5b81600560003373ffffffffffffffffffffffffffffffffffffffff1673ffffffffffffffffffffffffffffffffffffffff1681526020019081526020016000206000828254610f079190611a91565b9250508190555081600560008573ffffffffffffffffffffffffffffffffffffffff1673ffffffffffffffffffffffffffffffffffffffff1681526020019081526020016000206000828254610f5d9190611979565b925050819055508273ffffffffffffffffffffffffffffffffffffffff163373ffffffffffffffffffffffffffffffffffffffff167fddf252ad1be2c89b69c2b068fc378daa952ba7f163c4a11628f55a4df523b3ef84604051610fc1919061189e565b60405180910390a36001905092915050565b6000600760008473ffffffffffffffffffffffffffffffffffffffff1673ffffffffffffffffffffffffffffffffffffffff16815260200190815260200160002060008373ffffffffffffffffffffffffffffffffffffffff1673ffffffffffffffffffffffffffffffffffffffff16815260200190815260200160002054905092915050565b3373ffffffffffffffffffffffffffffffffffffffff1660008054906101000a900473ffffffffffffffffffffffffffffffffffffffff1673ffffffffffffffffffffffffffffffffffffffff16146110e8576040517f08c379a00000000000000000000000000000000000000000000000000000000081526004016110df906117fe565b60405180910390fd5b6000600560008373ffffffffffffffffffffffffffffffffffffffff1673ffffffffffffffffffffffffffffffffffffffff1681526020019081526020016000205490508281101561116f576040517f08c379a00000000000000000000000000000000000000000000000000000000081526004016111669061181e565b60405180910390fd5b82600460008282546111819190611a91565b9250508190555082600560008473ffffffffffffffffffffffffffffffffffffffff1673ffffffffffffffffffffffffffffffffffffffff16815260200190815260200160002060008282546111d79190611a91565b92505081905550505050565b60006111f66111f184611905565b6118d4565b9050808382526020820190508285602086028201111561121557600080fd5b60005b85811015611245578161122b88826112bb565b845260208401935060208301925050600181019050611218565b5050509392505050565b600061126261125d84611931565b6118d4565b9050808382526020820190508285602086028201111561128157600080fd5b60005b858110156112b157816112978882611324565b845260208401935060208301925050600181019050611284565b5050509392505050565b6000813590506112ca81611c4c565b92915050565b600082601f8301126112e157600080fd5b81356112f18482602086016111e3565b91505092915050565b600082601f83011261130b57600080fd5b813561131b84826020860161124f565b91505092915050565b60008135905061133381611c63565b92915050565b60008135905061134881611c7a565b92915050565b60006020828403121561136057600080fd5b600061136e848285016112bb565b91505092915050565b6000806040838503121561138a57600080fd5b6000611398858286016112bb565b92505060206113a9858286016112bb565b9150509250929050565b6000806000606084860312156113c857600080fd5b60006113d6868287016112bb565b93505060206113e7868287016112bb565b92505060406113f886828701611324565b9150509250925092565b6000806040838503121561141557600080fd5b6000611423858286016112bb565b925050602061143485828601611324565b9150509250929050565b6000806040838503121561145157600080fd5b600083013567ffffffffffffffff81111561146b57600080fd5b611477858286016112d0565b925050602083013567ffffffffffffffff81111561149457600080fd5b6114a0858286016112fa565b9150509250929050565b600080604083850312156114bd57600080fd5b60006114cb85828601611324565b92505060206114dc858286016112bb565b9150509250929050565b6000602082840312156114f857600080fd5b600061150684828501611339565b91505092915050565b61151881611ad7565b82525050565b60006115298261195d565b6115338185611968565b9350611543818560208601611b1a565b61154c81611c3b565b840191505092915050565b6000611564601983611968565b91507f4552524f523a204e6f7420656e6f7567682062616c616e6365000000000000006000830152602082019050919050565b60006115a4602883611968565b91507f4572726f72203a204e6f7420656e6f75676820616c6c6f77616e636520746f2060008301527f64656372656173650000000000000000000000000000000000000000000000006020830152604082019050919050565b600061160a600a83611968565b91507f4f6e6c79206f776e6572000000000000000000000000000000000000000000006000830152602082019050919050565b600061164a601983611968565b91507f4e6f7420656e6f75676820746f6b656e7320746f206275726e000000000000006000830152602082019050919050565b600061168a602883611968565b91507f4572726f72203a3a3a204e6f7420656e6f75676820616c6c6f77616e6365206160008301527f7661696c61626c650000000000000000000000000000000000000000000000006020830152604082019050919050565b60006116f0601283611968565b91507f4572726f72203a204f6e6c79204f776e657200000000000000000000000000006000830152602082019050919050565b6000611730601383611968565b91507f4572726f72203a20556e7265616c6973746963000000000000000000000000006000830152602082019050919050565b61176c81611b03565b82525050565b61177b81611b0d565b82525050565b6000602082019050611796600083018461150f565b92915050565b600060208201905081810360008301526117b6818461151e565b905092915050565b600060208201905081810360008301526117d781611557565b9050919050565b600060208201905081810360008301526117f781611597565b9050919050565b60006020820190508181036000830152611817816115fd565b9050919050565b600060208201905081810360008301526118378161163d565b9050919050565b600060208201905081810360008301526118578161167d565b9050919050565b60006020820190508181036000830152611877816116e3565b9050919050565b6000602082019050818103600083015261189781611723565b9050919050565b60006020820190506118b36000830184611763565b92915050565b60006020820190506118ce6000830184611772565b92915050565b6000604051905081810181811067ffffffffffffffff821117156118fb576118fa611c0c565b5b8060405250919050565b600067ffffffffffffffff8211156119205761191f611c0c565b5b602082029050602081019050919050565b600067ffffffffffffffff82111561194c5761194b611c0c565b5b602082029050602081019050919050565b600081519050919050565b600082825260208201905092915050565b600061198482611b03565b915061198f83611b03565b9250827fffffffffffffffffffffffffffffffffffffffffffffffffffffffffffffffff038211156119c4576119c3611b7f565b5b828201905092915050565b60006119da82611b0d565b91506119e583611b0d565b92508260ff038211156119fb576119fa611b7f565b5b828201905092915050565b6000611a1182611b03565b9150611a1c83611b03565b925082611a2c57611a2b611bae565b5b828204905092915050565b6000611a4282611b03565b9150611a4d83611b03565b9250817fffffffffffffffffffffffffffffffffffffffffffffffffffffffffffffffff0483118215151615611a8657611a85611b7f565b5b828202905092915050565b6000611a9c82611b03565b9150611aa783611b03565b925082821015611aba57611ab9611b7f565b5b828203905092915050565b6000611ad082611ae3565b9050919050565b60008115159050919050565b600073ffffffffffffffffffffffffffffffffffffffff82169050919050565b6000819050919050565b600060ff82169050919050565b60005b83811015611b38578082015181840152602081019050611b1d565b83811115611b47576000848401525b50505050565b60006002820490506001821680611b6557607f821691505b60208210811415611b7957611b78611bdd565b5b50919050565b7f4e487b7100000000000000000000000000000000000000000000000000000000600052601160045260246000fd5b7f4e487b7100000000000000000000000000000000000000000000000000000000600052601260045260246000fd5b7f4e487b7100000000000000000000000000000000000000000000000000000000600052602260045260246000fd5b7f4e487b7100000000000000000000000000000000000000000000000000000000600052604160045260246000fd5b6000601f19601f8301169050919050565b611c5581611ac5565b8114611c6057600080fd5b50565b611c6c81611b03565b8114611c7757600080fd5b50565b611c8381611b0d565b8114611c8e57600080fd5b5056fea26469706673582212208f3280d423d827b26cf267590f9abdae51b43454bc827f3e5b01e5c248dd46c864736f6c63430008000033",
  "immutableReferences": {},
  "source": "// SPDX-License-Identifier: MIT\r\npragma solidity 0.8.0;\r\n\r\ninterface IERC20 {\r\n    function totalSupply() external view returns (uint256);    \r\n    function balanceOf(address _owner) external view returns (uint256 balance);\r\n    function transfer(address _to, uint256 _value) external returns (bool success);    \r\n    function transferFrom(address _from, address _to, uint256 _value) external returns (bool success);    \r\n    function approve(address _spender, uint256 _value) external returns (bool success);\r\n    function allowance(address _owner, address _spender) external view returns (uint256 remaining);    \r\n\r\n    event Transfer(address indexed _from, address indexed _to, uint256 _value);\r\n    event Approval(address indexed _owner, address indexed _spender, uint256 _value);\r\n\r\n}\r\n\r\ncontract ERC20 is IERC20{\r\n\r\n    address owner;\r\n    string name_ ;\r\n    string symbol_;\r\n    uint8 decimals_;\r\n    uint256 tSupply;\r\n    mapping (address => uint256) balances;\r\n\r\n    //event Transfer(address indexed _from, address indexed _to, uint256 _value);\r\n\r\n    constructor (string memory _name, string memory _symbol,\r\n                    uint8 _decimals) {\r\n        name_ = _name;\r\n        symbol_ = _symbol;\r\n        decimals_ = _decimals;\r\n        //tSupply = _tSupply;\r\n        //balances[msg.sender] = tSupply;\r\n        owner = msg.sender; // deployer\r\n    }\r\n    function name() public view returns (string memory){\r\n        return name_;\r\n    }\r\n    function symbol() public view returns (string memory){\r\n        return symbol_;\r\n    }\r\n    function decimals() public view returns (uint8){\r\n        return decimals_;\r\n    }\r\n\r\n    function totalSupply() public view override returns (uint256){\r\n        return tSupply;\r\n    }\r\n    function balanceOf(address _owner) public view override returns (uint256 balance){\r\n        return balances[_owner];\r\n    }\r\n    function transfer(address _to, uint256 _value) public override returns (bool success){\r\n        require(balances[msg.sender]>=_value,\"ERROR: Not enough balance\");\r\n        balances[msg.sender] -= _value;\r\n        balances[_to] += _value;\r\n        //a = a+b is same as  a+=b\r\n        emit Transfer(msg.sender, _to, _value);\r\n        return true;\r\n    }\r\n    uint8 brokerage;\r\n    function setBrokerage(uint8 _num)public {\r\n        require( msg.sender == owner, \"Error : Only Owner\");\r\n        require( _num<=100, \"Error : Unrealistic\");\r\n        brokerage = _num;\r\n    }\r\n    function transferFrom(address _from, address _to, uint256 _value) public override returns (bool success){\r\n        require(balances[_from]>=_value,\"ERROR: Not enough balance\");\r\n        require(allowed[_from][msg.sender]>= _value, \"Error ::: Not enough allowance available\");\r\n        balances[_from] -= _value*(100+brokerage)/100;\r\n        balances[_to] += _value;\r\n        balances[msg.sender] += _value*brokerage/100;\r\n        allowed[_from][msg.sender]-=_value;\r\n        emit Transfer(_from, _to, _value);\r\n        return true;\r\n        \r\n    }\r\n    mapping(address=>mapping(address => uint256)) allowed;\r\n    // Owner => Spender => Allowance\r\n    //event Approval(address indexed _owner, address indexed _spender, uint256 _value);\r\n    function approve(address _spender, uint256 _value) public override returns (bool success){\r\n        allowed[msg.sender][_spender] = _value;\r\n        emit Approval (msg.sender,_spender, _value);\r\n        return true;\r\n    }\r\n    function allowance(address _owner, address _spender) public view override returns (uint256 remaining){\r\n        return allowed[_owner][_spender];    \r\n    }\r\n    // Increase & Decrease allowance\r\n    function increaseAllowance(address _spender, uint256 _value) public returns (bool success) {\r\n        allowed[msg.sender][_spender] += _value;\r\n        emit Approval (msg.sender,_spender, _value);\r\n        return true;\r\n    }\r\n    function decreaseAllowance(address _spender, uint256 _value) public returns (bool success) {\r\n        // Must check if _value of allowance is remaining or not.\r\n        uint rem = allowed[msg.sender][_spender];\r\n        require(rem>=_value, \"Error : Not enough allowance to decrease\");\r\n        allowed[msg.sender][_spender] -= _value;\r\n        emit Approval (msg.sender,_spender, _value);\r\n        return true;\r\n    }\r\n    // Mint & Burn tokens.\r\n    function mint (uint256 _inc, address _addr) public {\r\n        require(owner == msg.sender, \"Only owner\");\r\n        // Increase total supply\r\n        tSupply += _inc;\r\n        // Allocate this inc to some wallet. (owner)\r\n        balances[_addr] += _inc;\r\n\r\n    }\r\n\r\n    function burn (uint256 _inc, address _addr) public {\r\n        require(owner == msg.sender, \"Only owner\");\r\n        uint bal = balances[_addr];\r\n        require(bal>=_inc, \"Not enough tokens to burn\");\r\n        // Increase total supply\r\n        tSupply -= _inc;\r\n        // Allocate this inc to some wallet. (owner)\r\n        balances[_addr] -= _inc;\r\n\r\n    }\r\n\r\n        \r\n}\r\n\r\ncontract ClientToken2 is ERC20 {\r\n\r\n    constructor(uint256 _totalQty) ERC20(\"KhanCoin2\",\"KHC2\",0) {    \r\n        mint(_totalQty,msg.sender);\r\n        // mint(_totalQty/2,_coOwner);\r\n        // coOwner = _coOwner;\r\n    }       \r\n    address coOwner;\r\n\r\n    function bulkTransfer(address[] memory _addr, uint256[] memory _salary) public returns(bool){\r\n        // some code here\r\n\r\n    }\r\n\r\n}\r\n\r\n\r\n",
  "sourcePath": "C:\\Users\\Owner\\Documents\\KhanCoin.sol\\contracts\\KhanCoin (1).sol",
  "compiler": {
    "name": "solc",
    "version": "0.8.0+commit.c7dfd78e.Emscripten.clang"
  },
  "schemaVersion": "3.4.6",
  "updatedAt": "2022-04-04T01:41:49.933Z",
  "devdoc": {
    "kind": "dev",
    "methods": {},
    "version": 1
  },
  "userdoc": {
    "kind": "user",
    "methods": {},
    "version": 1
  }
}