{
  "contractName": "ERC20",
  "abi": [
    {
      "inputs": [
        {
          "internalType": "string",
          "name": "_name",
          "type": "string"
        },
        {
          "internalType": "string",
          "name": "_symbol",
          "type": "string"
        },
        {
          "internalType": "uint8",
          "name": "_decimals",
          "type": "uint8"
        }
      ],
      "stateMutability": "nonpayable",
      "type": "constructor"
    },
    {
      "anonymous": false,
      "inputs": [
        {
          "indexed": true,
          "internalType": "address",
          "name": "_owner",
          "type": "address"
        },
        {
          "indexed": true,
          "internalType": "address",
          "name": "_spender",
          "type": "address"
        },
        {
          "indexed": false,
          "internalType": "uint256",
          "name": "_value",
          "type": "uint256"
        }
      ],
      "name": "Approval",
      "type": "event"
    },
    {
      "anonymous": false,
      "inputs": [
        {
          "indexed": true,
          "internalType": "address",
          "name": "_from",
          "type": "address"
        },
        {
          "indexed": true,
          "internalType": "address",
          "name": "_to",
          "type": "address"
        },
        {
          "indexed": false,
          "internalType": "uint256",
          "name": "_value",
          "type": "uint256"
        }
      ],
      "name": "Transfer",
      "type": "event"
    },
    {
      "inputs": [],
      "name": "name",
      "outputs": [
        {
          "internalType": "string",
          "name": "",
          "type": "string"
        }
      ],
      "stateMutability": "view",
      "type": "function"
    },
    {
      "inputs": [],
      "name": "symbol",
      "outputs": [
        {
          "internalType": "string",
          "name": "",
          "type": "string"
        }
      ],
      "stateMutability": "view",
      "type": "function"
    },
    {
      "inputs": [],
      "name": "decimals",
      "outputs": [
        {
          "internalType": "uint8",
          "name": "",
          "type": "uint8"
        }
      ],
      "stateMutability": "view",
      "type": "function"
    },
    {
      "inputs": [],
      "name": "totalSupply",
      "outputs": [
        {
          "internalType": "uint256",
          "name": "",
          "type": "uint256"
        }
      ],
      "stateMutability": "view",
      "type": "function"
    },
    {
      "inputs": [
        {
          "internalType": "address",
          "name": "_owner",
          "type": "address"
        }
      ],
      "name": "balanceOf",
      "outputs": [
        {
          "internalType": "uint256",
          "name": "balance",
          "type": "uint256"
        }
      ],
      "stateMutability": "view",
      "type": "function"
    },
    {
      "inputs": [
        {
          "internalType": "address",
          "name": "_to",
          "type": "address"
        },
        {
          "internalType": "uint256",
          "name": "_value",
          "type": "uint256"
        }
      ],
      "name": "transfer",
      "outputs": [
        {
          "internalType": "bool",
          "name": "success",
          "type": "bool"
        }
      ],
      "stateMutability": "nonpayable",
      "type": "function"
    },
    {
      "inputs": [
        {
          "internalType": "uint8",
          "name": "_num",
          "type": "uint8"
        }
      ],
      "name": "setBrokerage",
      "outputs": [],
      "stateMutability": "nonpayable",
      "type": "function"
    },
    {
      "inputs": [
        {
          "internalType": "address",
          "name": "_from",
          "type": "address"
        },
        {
          "internalType": "address",
          "name": "_to",
          "type": "address"
        },
        {
          "internalType": "uint256",
          "name": "_value",
          "type": "uint256"
        }
      ],
      "name": "transferFrom",
      "outputs": [
        {
          "internalType": "bool",
          "name": "success",
          "type": "bool"
        }
      ],
      "stateMutability": "nonpayable",
      "type": "function"
    },
    {
      "inputs": [
        {
          "internalType": "address",
          "name": "_spender",
          "type": "address"
        },
        {
          "internalType": "uint256",
          "name": "_value",
          "type": "uint256"
        }
      ],
      "name": "approve",
      "outputs": [
        {
          "internalType": "bool",
          "name": "success",
          "type": "bool"
        }
      ],
      "stateMutability": "nonpayable",
      "type": "function"
    },
    {
      "inputs": [
        {
          "internalType": "address",
          "name": "_owner",
          "type": "address"
        },
        {
          "internalType": "address",
          "name": "_spender",
          "type": "address"
        }
      ],
      "name": "allowance",
      "outputs": [
        {
          "internalType": "uint256",
          "name": "remaining",
          "type": "uint256"
        }
      ],
      "stateMutability": "view",
      "type": "function"
    },
    {
      "inputs": [
        {
          "internalType": "address",
          "name": "_spender",
          "type": "address"
        },
        {
          "internalType": "uint256",
          "name": "_value",
          "type": "uint256"
        }
      ],
      "name": "increaseAllowance",
      "outputs": [
        {
          "internalType": "bool",
          "name": "success",
          "type": "bool"
        }
      ],
      "stateMutability": "nonpayable",
      "type": "function"
    },
    {
      "inputs": [
        {
          "internalType": "address",
          "name": "_spender",
          "type": "address"
        },
        {
          "internalType": "uint256",
          "name": "_value",
          "type": "uint256"
        }
      ],
      "name": "decreaseAllowance",
      "outputs": [
        {
          "internalType": "bool",
          "name": "success",
          "type": "bool"
        }
      ],
      "stateMutability": "nonpayable",
      "type": "function"
    },
    {
      "inputs": [
        {
          "internalType": "uint256",
          "name": "_inc",
          "type": "uint256"
        },
        {
          "internalType": "address",
          "name": "_addr",
          "type": "address"
        }
      ],
      "name": "mint",
      "outputs": [],
      "stateMutability": "nonpayable",
      "type": "function"
    },
    {
      "inputs": [
        {
          "internalType": "uint256",
          "name": "_inc",
          "type": "uint256"
        },
        {
          "internalType": "address",
          "name": "_addr",
          "type": "address"
        }
      ],
      "name": "burn",
      "outputs": [],
      "stateMutability": "nonpayable",
      "type": "function"
    }
  ],
  "bytecode": "0x60806040523480156200001157600080fd5b5060405162001e2a38038062001e2a833981810160405281019062000037919062000206565b82600190805190602001906200004f929190620000cd565b50816002908051906020019062000068929190620000cd565b5080600360006101000a81548160ff021916908360ff160217905550336000806101000a81548173ffffffffffffffffffffffffffffffffffffffff021916908373ffffffffffffffffffffffffffffffffffffffff160217905550505050620003e6565b828054620000db9062000338565b90600052602060002090601f016020900481019282620000ff57600085556200014b565b82601f106200011a57805160ff19168380011785556200014b565b828001600101855582156200014b579182015b828111156200014a5782518255916020019190600101906200012d565b5b5090506200015a91906200015e565b5090565b5b80821115620001795760008160009055506001016200015f565b5090565b6000620001946200018e84620002c2565b6200028e565b905082815260208101848484011115620001ad57600080fd5b620001ba84828562000302565b509392505050565b600082601f830112620001d457600080fd5b8151620001e68482602086016200017d565b91505092915050565b6000815190506200020081620003cc565b92915050565b6000806000606084860312156200021c57600080fd5b600084015167ffffffffffffffff8111156200023757600080fd5b6200024586828701620001c2565b935050602084015167ffffffffffffffff8111156200026357600080fd5b6200027186828701620001c2565b92505060406200028486828701620001ef565b9150509250925092565b6000604051905081810181811067ffffffffffffffff82111715620002b857620002b76200039d565b5b8060405250919050565b600067ffffffffffffffff821115620002e057620002df6200039d565b5b601f19601f8301169050602081019050919050565b600060ff82169050919050565b60005b838110156200032257808201518184015260208101905062000305565b8381111562000332576000848401525b50505050565b600060028204905060018216806200035157607f821691505b602082108114156200036857620003676200036e565b5b50919050565b7f4e487b7100000000000000000000000000000000000000000000000000000000600052602260045260246000fd5b7f4e487b7100000000000000000000000000000000000000000000000000000000600052604160045260246000fd5b620003d781620002f5565b8114620003e357600080fd5b50565b611a3480620003f66000396000f3fe608060405234801561001057600080fd5b50600436106100ea5760003560e01c806370a082311161008c578063a457c2d711610066578063a457c2d71461025f578063a9059cbb1461028f578063dd62ed3e146102bf578063fcd3533c146102ef576100ea565b806370a08231146101f557806394bf804d1461022557806395d89b4114610241576100ea565b806323b872dd116100c857806323b872dd1461015b578063313ce5671461018b57806339509351146101a95780633952593d146101d9576100ea565b806306fdde03146100ef578063095ea7b31461010d57806318160ddd1461013d575b600080fd5b6100f761030b565b60405161010491906115c1565b60405180910390f35b61012760048036038101906101229190611293565b61039d565b60405161013491906115a6565b60405180910390f35b61014561048f565b60405161015291906116c3565b60405180910390f35b61017560048036038101906101709190611244565b610499565b60405161018291906115a6565b60405180910390f35b61019361083f565b6040516101a091906116de565b60405180910390f35b6101c360048036038101906101be9190611293565b610856565b6040516101d091906115a6565b60405180910390f35b6101f360048036038101906101ee919061130b565b61095a565b005b61020f600480360381019061020a91906111df565b610a4d565b60405161021c91906116c3565b60405180910390f35b61023f600480360381019061023a91906112cf565b610a96565b005b610249610b97565b60405161025691906115c1565b60405180910390f35b61027960048036038101906102749190611293565b610c29565b60405161028691906115a6565b60405180910390f35b6102a960048036038101906102a49190611293565b610df1565b6040516102b691906115a6565b60405180910390f35b6102d960048036038101906102d49190611208565b610f90565b6040516102e691906116c3565b60405180910390f35b610309600480360381019061030491906112cf565b611017565b005b60606001805461031a906118e9565b80601f0160208091040260200160405190810160405280929190818152602001828054610346906118e9565b80156103935780601f1061036857610100808354040283529160200191610393565b820191906000526020600020905b81548152906001019060200180831161037657829003601f168201915b5050505050905090565b600081600760003373ffffffffffffffffffffffffffffffffffffffff1673ffffffffffffffffffffffffffffffffffffffff16815260200190815260200160002060008573ffffffffffffffffffffffffffffffffffffffff1673ffffffffffffffffffffffffffffffffffffffff168152602001908152602001600020819055508273ffffffffffffffffffffffffffffffffffffffff163373ffffffffffffffffffffffffffffffffffffffff167f8c5be1e5ebec7d5bd14f71427d1e84f3dd0314c0f7b2291e5b200ac8c7c3b9258460405161047d91906116c3565b60405180910390a36001905092915050565b6000600454905090565b600081600560008673ffffffffffffffffffffffffffffffffffffffff1673ffffffffffffffffffffffffffffffffffffffff16815260200190815260200160002054101561051d576040517f08c379a0000000000000000000000000000000000000000000000000000000008152600401610514906115e3565b60405180910390fd5b81600760008673ffffffffffffffffffffffffffffffffffffffff1673ffffffffffffffffffffffffffffffffffffffff16815260200190815260200160002060003373ffffffffffffffffffffffffffffffffffffffff1673ffffffffffffffffffffffffffffffffffffffff1681526020019081526020016000205410156105dc576040517f08c379a00000000000000000000000000000000000000000000000000000000081526004016105d390611663565b60405180910390fd5b6064600660009054906101000a900460ff1660646105fa919061176b565b60ff168361060891906117d3565b61061291906117a2565b600560008673ffffffffffffffffffffffffffffffffffffffff1673ffffffffffffffffffffffffffffffffffffffff1681526020019081526020016000206000828254610660919061182d565b9250508190555081600560008573ffffffffffffffffffffffffffffffffffffffff1673ffffffffffffffffffffffffffffffffffffffff16815260200190815260200160002060008282546106b69190611715565b925050819055506064600660009054906101000a900460ff1660ff16836106dd91906117d3565b6106e791906117a2565b600560003373ffffffffffffffffffffffffffffffffffffffff1673ffffffffffffffffffffffffffffffffffffffff16815260200190815260200160002060008282546107359190611715565b9250508190555081600760008673ffffffffffffffffffffffffffffffffffffffff1673ffffffffffffffffffffffffffffffffffffffff16815260200190815260200160002060003373ffffffffffffffffffffffffffffffffffffffff1673ffffffffffffffffffffffffffffffffffffffff16815260200190815260200160002060008282546107c8919061182d565b925050819055508273ffffffffffffffffffffffffffffffffffffffff168473ffffffffffffffffffffffffffffffffffffffff167fddf252ad1be2c89b69c2b068fc378daa952ba7f163c4a11628f55a4df523b3ef8460405161082c91906116c3565b60405180910390a3600190509392505050565b6000600360009054906101000a900460ff16905090565b600081600760003373ffffffffffffffffffffffffffffffffffffffff1673ffffffffffffffffffffffffffffffffffffffff16815260200190815260200160002060008573ffffffffffffffffffffffffffffffffffffffff1673ffffffffffffffffffffffffffffffffffffffff16815260200190815260200160002060008282546108e49190611715565b925050819055508273ffffffffffffffffffffffffffffffffffffffff163373ffffffffffffffffffffffffffffffffffffffff167f8c5be1e5ebec7d5bd14f71427d1e84f3dd0314c0f7b2291e5b200ac8c7c3b9258460405161094891906116c3565b60405180910390a36001905092915050565b60008054906101000a900473ffffffffffffffffffffffffffffffffffffffff1673ffffffffffffffffffffffffffffffffffffffff163373ffffffffffffffffffffffffffffffffffffffff16146109e8576040517f08c379a00000000000000000000000000000000000000000000000000000000081526004016109df90611683565b60405180910390fd5b60648160ff161115610a2f576040517f08c379a0000000000000000000000000000000000000000000000000000000008152600401610a26906116a3565b60405180910390fd5b80600660006101000a81548160ff021916908360ff16021790555050565b6000600560008373ffffffffffffffffffffffffffffffffffffffff1673ffffffffffffffffffffffffffffffffffffffff168152602001908152602001600020549050919050565b3373ffffffffffffffffffffffffffffffffffffffff1660008054906101000a900473ffffffffffffffffffffffffffffffffffffffff1673ffffffffffffffffffffffffffffffffffffffff1614610b24576040517f08c379a0000000000000000000000000000000000000000000000000000000008152600401610b1b90611623565b60405180910390fd5b8160046000828254610b369190611715565b9250508190555081600560008373ffffffffffffffffffffffffffffffffffffffff1673ffffffffffffffffffffffffffffffffffffffff1681526020019081526020016000206000828254610b8c9190611715565b925050819055505050565b606060028054610ba6906118e9565b80601f0160208091040260200160405190810160405280929190818152602001828054610bd2906118e9565b8015610c1f5780601f10610bf457610100808354040283529160200191610c1f565b820191906000526020600020905b815481529060010190602001808311610c0257829003601f168201915b5050505050905090565b600080600760003373ffffffffffffffffffffffffffffffffffffffff1673ffffffffffffffffffffffffffffffffffffffff16815260200190815260200160002060008573ffffffffffffffffffffffffffffffffffffffff1673ffffffffffffffffffffffffffffffffffffffff16815260200190815260200160002054905082811015610cee576040517f08c379a0000000000000000000000000000000000000000000000000000000008152600401610ce590611603565b60405180910390fd5b82600760003373ffffffffffffffffffffffffffffffffffffffff1673ffffffffffffffffffffffffffffffffffffffff16815260200190815260200160002060008673ffffffffffffffffffffffffffffffffffffffff1673ffffffffffffffffffffffffffffffffffffffff1681526020019081526020016000206000828254610d7a919061182d565b925050819055508373ffffffffffffffffffffffffffffffffffffffff163373ffffffffffffffffffffffffffffffffffffffff167f8c5be1e5ebec7d5bd14f71427d1e84f3dd0314c0f7b2291e5b200ac8c7c3b92585604051610dde91906116c3565b60405180910390a3600191505092915050565b600081600560003373ffffffffffffffffffffffffffffffffffffffff1673ffffffffffffffffffffffffffffffffffffffff168152602001908152602001600020541015610e75576040517f08c379a0000000000000000000000000000000000000000000000000000000008152600401610e6c906115e3565b60405180910390fd5b81600560003373ffffffffffffffffffffffffffffffffffffffff1673ffffffffffffffffffffffffffffffffffffffff1681526020019081526020016000206000828254610ec4919061182d565b9250508190555081600560008573ffffffffffffffffffffffffffffffffffffffff1673ffffffffffffffffffffffffffffffffffffffff1681526020019081526020016000206000828254610f1a9190611715565b925050819055508273ffffffffffffffffffffffffffffffffffffffff163373ffffffffffffffffffffffffffffffffffffffff167fddf252ad1be2c89b69c2b068fc378daa952ba7f163c4a11628f55a4df523b3ef84604051610f7e91906116c3565b60405180910390a36001905092915050565b6000600760008473ffffffffffffffffffffffffffffffffffffffff1673ffffffffffffffffffffffffffffffffffffffff16815260200190815260200160002060008373ffffffffffffffffffffffffffffffffffffffff1673ffffffffffffffffffffffffffffffffffffffff16815260200190815260200160002054905092915050565b3373ffffffffffffffffffffffffffffffffffffffff1660008054906101000a900473ffffffffffffffffffffffffffffffffffffffff1673ffffffffffffffffffffffffffffffffffffffff16146110a5576040517f08c379a000000000000000000000000000000000000000000000000000000000815260040161109c90611623565b60405180910390fd5b6000600560008373ffffffffffffffffffffffffffffffffffffffff1673ffffffffffffffffffffffffffffffffffffffff1681526020019081526020016000205490508281101561112c576040517f08c379a000000000000000000000000000000000000000000000000000000000815260040161112390611643565b60405180910390fd5b826004600082825461113e919061182d565b9250508190555082600560008473ffffffffffffffffffffffffffffffffffffffff1673ffffffffffffffffffffffffffffffffffffffff1681526020019081526020016000206000828254611194919061182d565b92505081905550505050565b6000813590506111af816119b9565b92915050565b6000813590506111c4816119d0565b92915050565b6000813590506111d9816119e7565b92915050565b6000602082840312156111f157600080fd5b60006111ff848285016111a0565b91505092915050565b6000806040838503121561121b57600080fd5b6000611229858286016111a0565b925050602061123a858286016111a0565b9150509250929050565b60008060006060848603121561125957600080fd5b6000611267868287016111a0565b9350506020611278868287016111a0565b9250506040611289868287016111b5565b9150509250925092565b600080604083850312156112a657600080fd5b60006112b4858286016111a0565b92505060206112c5858286016111b5565b9150509250929050565b600080604083850312156112e257600080fd5b60006112f0858286016111b5565b9250506020611301858286016111a0565b9150509250929050565b60006020828403121561131d57600080fd5b600061132b848285016111ca565b91505092915050565b61133d81611873565b82525050565b600061134e826116f9565b6113588185611704565b93506113688185602086016118b6565b611371816119a8565b840191505092915050565b6000611389601983611704565b91507f4552524f523a204e6f7420656e6f7567682062616c616e6365000000000000006000830152602082019050919050565b60006113c9602883611704565b91507f4572726f72203a204e6f7420656e6f75676820616c6c6f77616e636520746f2060008301527f64656372656173650000000000000000000000000000000000000000000000006020830152604082019050919050565b600061142f600a83611704565b91507f4f6e6c79206f776e6572000000000000000000000000000000000000000000006000830152602082019050919050565b600061146f601983611704565b91507f4e6f7420656e6f75676820746f6b656e7320746f206275726e000000000000006000830152602082019050919050565b60006114af602883611704565b91507f4572726f72203a3a3a204e6f7420656e6f75676820616c6c6f77616e6365206160008301527f7661696c61626c650000000000000000000000000000000000000000000000006020830152604082019050919050565b6000611515601283611704565b91507f4572726f72203a204f6e6c79204f776e657200000000000000000000000000006000830152602082019050919050565b6000611555601383611704565b91507f4572726f72203a20556e7265616c6973746963000000000000000000000000006000830152602082019050919050565b6115918161189f565b82525050565b6115a0816118a9565b82525050565b60006020820190506115bb6000830184611334565b92915050565b600060208201905081810360008301526115db8184611343565b905092915050565b600060208201905081810360008301526115fc8161137c565b9050919050565b6000602082019050818103600083015261161c816113bc565b9050919050565b6000602082019050818103600083015261163c81611422565b9050919050565b6000602082019050818103600083015261165c81611462565b9050919050565b6000602082019050818103600083015261167c816114a2565b9050919050565b6000602082019050818103600083015261169c81611508565b9050919050565b600060208201905081810360008301526116bc81611548565b9050919050565b60006020820190506116d86000830184611588565b92915050565b60006020820190506116f36000830184611597565b92915050565b600081519050919050565b600082825260208201905092915050565b60006117208261189f565b915061172b8361189f565b9250827fffffffffffffffffffffffffffffffffffffffffffffffffffffffffffffffff038211156117605761175f61191b565b5b828201905092915050565b6000611776826118a9565b9150611781836118a9565b92508260ff038211156117975761179661191b565b5b828201905092915050565b60006117ad8261189f565b91506117b88361189f565b9250826117c8576117c761194a565b5b828204905092915050565b60006117de8261189f565b91506117e98361189f565b9250817fffffffffffffffffffffffffffffffffffffffffffffffffffffffffffffffff04831182151516156118225761182161191b565b5b828202905092915050565b60006118388261189f565b91506118438361189f565b9250828210156118565761185561191b565b5b828203905092915050565b600061186c8261187f565b9050919050565b60008115159050919050565b600073ffffffffffffffffffffffffffffffffffffffff82169050919050565b6000819050919050565b600060ff82169050919050565b60005b838110156118d45780820151818401526020810190506118b9565b838111156118e3576000848401525b50505050565b6000600282049050600182168061190157607f821691505b6020821081141561191557611914611979565b5b50919050565b7f4e487b7100000000000000000000000000000000000000000000000000000000600052601160045260246000fd5b7f4e487b7100000000000000000000000000000000000000000000000000000000600052601260045260246000fd5b7f4e487b7100000000000000000000000000000000000000000000000000000000600052602260045260246000fd5b6000601f19601f8301169050919050565b6119c281611861565b81146119cd57600080fd5b50565b6119d98161189f565b81146119e457600080fd5b50565b6119f0816118a9565b81146119fb57600080fd5b5056fea2646970667358221220fefe82e10df622036ad3a1647903bb6554d95f0782eee3ffa888bc4789de587264736f6c63430008000033",
  "immutableReferences": {},
  "source": "// SPDX-License-Identifier: MIT\r\npragma solidity 0.8.0;\r\n\r\ninterface IERC20 {\r\n    function totalSupply() external view returns (uint256);    \r\n    function balanceOf(address _owner) external view returns (uint256 balance);\r\n    function transfer(address _to, uint256 _value) external returns (bool success);    \r\n    function transferFrom(address _from, address _to, uint256 _value) external returns (bool success);    \r\n    function approve(address _spender, uint256 _value) external returns (bool success);\r\n    function allowance(address _owner, address _spender) external view returns (uint256 remaining);    \r\n\r\n    event Transfer(address indexed _from, address indexed _to, uint256 _value);\r\n    event Approval(address indexed _owner, address indexed _spender, uint256 _value);\r\n\r\n}\r\n\r\ncontract ERC20 is IERC20{\r\n\r\n    address owner;\r\n    string name_ ;\r\n    string symbol_;\r\n    uint8 decimals_;\r\n    uint256 tSupply;\r\n    mapping (address => uint256) balances;\r\n\r\n    //event Transfer(address indexed _from, address indexed _to, uint256 _value);\r\n\r\n    constructor (string memory _name, string memory _symbol,\r\n                    uint8 _decimals) {\r\n        name_ = _name;\r\n        symbol_ = _symbol;\r\n        decimals_ = _decimals;\r\n        //tSupply = _tSupply;\r\n        //balances[msg.sender] = tSupply;\r\n        owner = msg.sender; // deployer\r\n    }\r\n    function name() public view returns (string memory){\r\n        return name_;\r\n    }\r\n    function symbol() public view returns (string memory){\r\n        return symbol_;\r\n    }\r\n    function decimals() public view returns (uint8){\r\n        return decimals_;\r\n    }\r\n\r\n    function totalSupply() public view override returns (uint256){\r\n        return tSupply;\r\n    }\r\n    function balanceOf(address _owner) public view override returns (uint256 balance){\r\n        return balances[_owner];\r\n    }\r\n    function transfer(address _to, uint256 _value) public override returns (bool success){\r\n        require(balances[msg.sender]>=_value,\"ERROR: Not enough balance\");\r\n        balances[msg.sender] -= _value;\r\n        balances[_to] += _value;\r\n        //a = a+b is same as  a+=b\r\n        emit Transfer(msg.sender, _to, _value);\r\n        return true;\r\n    }\r\n    uint8 brokerage;\r\n    function setBrokerage(uint8 _num)public {\r\n        require( msg.sender == owner, \"Error : Only Owner\");\r\n        require( _num<=100, \"Error : Unrealistic\");\r\n        brokerage = _num;\r\n    }\r\n    function transferFrom(address _from, address _to, uint256 _value) public override returns (bool success){\r\n        require(balances[_from]>=_value,\"ERROR: Not enough balance\");\r\n        require(allowed[_from][msg.sender]>= _value, \"Error ::: Not enough allowance available\");\r\n        balances[_from] -= _value*(100+brokerage)/100;\r\n        balances[_to] += _value;\r\n        balances[msg.sender] += _value*brokerage/100;\r\n        allowed[_from][msg.sender]-=_value;\r\n        emit Transfer(_from, _to, _value);\r\n        return true;\r\n        \r\n    }\r\n    mapping(address=>mapping(address => uint256)) allowed;\r\n    // Owner => Spender => Allowance\r\n    //event Approval(address indexed _owner, address indexed _spender, uint256 _value);\r\n    function approve(address _spender, uint256 _value) public override returns (bool success){\r\n        allowed[msg.sender][_spender] = _value;\r\n        emit Approval (msg.sender,_spender, _value);\r\n        return true;\r\n    }\r\n    function allowance(address _owner, address _spender) public view override returns (uint256 remaining){\r\n        return allowed[_owner][_spender];    \r\n    }\r\n    // Increase & Decrease allowance\r\n    function increaseAllowance(address _spender, uint256 _value) public returns (bool success) {\r\n        allowed[msg.sender][_spender] += _value;\r\n        emit Approval (msg.sender,_spender, _value);\r\n        return true;\r\n    }\r\n    function decreaseAllowance(address _spender, uint256 _value) public returns (bool success) {\r\n        // Must check if _value of allowance is remaining or not.\r\n        uint rem = allowed[msg.sender][_spender];\r\n        require(rem>=_value, \"Error : Not enough allowance to decrease\");\r\n        allowed[msg.sender][_spender] -= _value;\r\n        emit Approval (msg.sender,_spender, _value);\r\n        return true;\r\n    }\r\n    // Mint & Burn tokens.\r\n    function mint (uint256 _inc, address _addr) public {\r\n        require(owner == msg.sender, \"Only owner\");\r\n        // Increase total supply\r\n        tSupply += _inc;\r\n        // Allocate this inc to some wallet. (owner)\r\n        balances[_addr] += _inc;\r\n\r\n    }\r\n\r\n    function burn (uint256 _inc, address _addr) public {\r\n        require(owner == msg.sender, \"Only owner\");\r\n        uint bal = balances[_addr];\r\n        require(bal>=_inc, \"Not enough tokens to burn\");\r\n        // Increase total supply\r\n        tSupply -= _inc;\r\n        // Allocate this inc to some wallet. (owner)\r\n        balances[_addr] -= _inc;\r\n\r\n    }\r\n\r\n        \r\n}\r\n\r\ncontract ClientToken2 is ERC20 {\r\n\r\n    constructor(uint256 _totalQty) ERC20(\"KhanCoin2\",\"KHC2\",0) {    \r\n        mint(_totalQty,msg.sender);\r\n        // mint(_totalQty/2,_coOwner);\r\n        // coOwner = _coOwner;\r\n    }       \r\n    address coOwner;\r\n\r\n    function bulkTransfer(address[] memory _addr, uint256[] memory _salary) public returns(bool){\r\n        // some code here\r\n\r\n    }\r\n\r\n}\r\n\r\n\r\n",
  "sourcePath": "C:\\Users\\Owner\\Documents\\KhanCoin.sol\\contracts\\KhanCoin (1).sol",
  "compiler": {
    "name": "solc",
    "version": "0.8.0+commit.c7dfd78e.Emscripten.clang"
  },
  "schemaVersion": "3.4.6",
  "updatedAt": "2022-04-04T01:41:50.027Z",
  "devdoc": {
    "kind": "dev",
    "methods": {},
    "version": 1
  },
  "userdoc": {
    "kind": "user",
    "methods": {},
    "version": 1
  }
}